:020000040000fa
:080000000004040000000000f0
:020000040000fa
:100008009404000094040000940400009404000088
:100018009404000094040000940400009404000078
:100028009404000094040000940400009404000068
:100038009404000094040000940400009404000058
:100048000e0c00009404000094040000060c00004c
:100058009404000094040000940400009404000038
:100068009404000094040000940400009404000028
:100078009404000094040000940400009404000018
:100088009404000094040000940400009404000008
:1000980094040000940400009404000094040000f8
:1000a80094040000940400009404000094040000e8
:1000b80094040000940400009404000094040000d8
:1000c80094040000940400009404000094040000c8
:1000d80094040000940400009404000094040000b8
:1000e80094040000940400009404000094040000a8
:1000f8009404000094040000940400009404000098
:100108009404000094040000940400009404000087
:100118009404000094040000940400009404000077
:100128009404000094040000940400009404000067
:100138009404000094040000940400009404000057
:100148009404000094040000940400009404000047
:100158009404000094040000940400009404000037
:100168009404000094040000940400009404000027
:1001780094040000940400000a0c00009404000099
:100188009404000094040000940400009404000007
:1001980094040000940400009404000094040000f7
:1001a80094040000940400009404000094040000e7
:1001b80094040000940400009404000094040000d7
:1001c80094040000940400009404000094040000c7
:1001d80094040000940400009404000094040000b7
:1001e80094040000940400009404000094040000a7
:0801f8009404000094040000cf
:020000040000fa
:08020000020c000020000000c8
:020000040000fa
:100208009404000094040000940400009404000086
:100218009404000094040000940400009404000076
:100228009404000094040000940400009404000066
:100238009404000094040000940400009404000056
:100248000e0c00009404000094040000060c00004a
:100258009404000094040000940400009404000036
:100268009404000094040000940400009404000026
:100278009404000094040000940400009404000016
:100288009404000094040000940400009404000006
:1002980094040000940400009404000094040000f6
:1002a80094040000940400009404000094040000e6
:1002b80094040000940400009404000094040000d6
:1002c80094040000940400009404000094040000c6
:1002d80094040000940400009404000094040000b6
:1002e80094040000940400009404000094040000a6
:1002f8009404000094040000940400009404000096
:100308009404000094040000940400009404000085
:100318009404000094040000940400009404000075
:100328009404000094040000940400009404000065
:100338009404000094040000940400009404000055
:100348009404000094040000940400009404000045
:100358009404000094040000940400009404000035
:100368009404000094040000940400009404000025
:1003780094040000940400000a0c00009404000097
:100388009404000094040000940400009404000005
:1003980094040000940400009404000094040000f5
:1003a80094040000940400009404000094040000e5
:1003b80094040000940400009404000094040000d5
:1003c80094040000940400009404000094040000c5
:1003d80094040000940400009404000094040000b5
:1003e80094040000940400009404000094040000a5
:0803f8009404000094040000cd
:020000040000fa
:10080000ef9120000e7f22000e0188000000000002
:1008100000012000200288000c00070060a02000da
:100820000100200011000700000020000000e0008f
:100830000200320000000200000000009a080200de
:10084000000000000040da000000fe004440a90063
:10085000000020000000e000030032000000200043
:10086000a00188004440a800000006009101880013
:10087000800078000000eb0015003700e2804000a7
:1008800032a0b4009101ba00e280400032a0b4006e
:100890009102ba00e280400032a0b4000002eb00f6
:1008a000472bde00f507b200602ce10004003a009f
:1008b0000059eb008301e900fdff3e000400370012
:1008c0006128e100010032000082eb000400070013
:1008d0001101ba000200e000e8ff3a000000060043
:1008e0003159ba008301e9000c0032002159ba00e5
:1008f0008301e900080032000400e00003003a0030
:10090000e280400032a0b400f5ff370011d9ba00f0
:100910008301e900faff3a008100e800e18040002d
:1009200032a0b400000006000040da000000fe0023
:10093000020ab900001bb9000200b80081004200a1
:080940008100430000000600e5
:020000040000fa
:100948002322ab00feff3a000080fb002011880044
:1009580000000600889fbe008a9fbe008c9fbe00d4
:10096800800678002342a80050c5b300f4ff0700b2
:1009780050c5b300f2ff0700fb8020008044eb0065
:100988000005eb005cc5b3000e0037000060fe00f8
:100998005b44780088c444008c4f54000400320043
:1009a800e44f540002003200e54f540002003a00c0
:1009b80050c0b300e2ff070008407800e0ff0700de
:1009c8000a05e8008d0f5500f0ff39000944ea00d8
:1009d80054c5b300844f540004003200e44f54005f
:1009e80002003200e54f540002003a0050c0b30044
:1009f800d3ff070008407800d1ff070040c0b300cc
:100a0800cfff07002302ab00feff32004f06be00f7
:100a18004f05be004f04be0000000600881f780086
:100a2800000478000060fe00141180006e0262006d
:100a380002003200341180002222a9002202ab00f9
:100a48000400320034118000044c78004f04780010
:100a5800000006008500ab00f2ff32003040800045
:100a680047020700efff37000200fa00889fbe0028
:100a78008a9fbe005ac5b3006a805700e7ff070087
:100a88006ff297008a4f5200fbff3a0011e1a9006c
:100a98006a805700e1ff07006ff297008a4f520003
:100aa800f5ff3a000004eb00884478006b10200042
:100ab800020037000004eb00884478006a80570081
:100ac800d6ff07006ff29700e54f52000900320089
:100ad8008a4f5200f7ff3200e44f520007003a00f5
:100ae8008944ea00000000000c0032000084eb009a
:100af800070037006a805700c8ff07006ff29700a9
:100b080084c444000581200084727c000804e80045
:100b18008b0f5400d8ff3e00e8ff37004f05be009a
:100b28004f04be000080fa00000006000400fa002e
:100b3800889fbe008a1f78004205dd00588120008a
:100b48008004eb0011003700820078000300780071
:100b5800b2bf9f00c3bf9f0003020700004c78008c
:100b68004802de001444980021449800480ade0038
:100b780034449800e48444003fb99700cfb9970003
:100b880062014100e0814900640444008a8f5400f6
:100b9800edff39004f0578004f04be000080fa00d1
:100ba80000000600e4874700889fbe008a9fbe00b9
:100bb8008c9fbe008e1f78000205be004807dd002e
:100bc8005d8120000006eb00020278009400b3006b
:100bd800650252000002520084bf9f008300370064
:100be8000060fe009d4278000582fb0005f02f00a2
:100bf80008836200040273001d4390004833dd003f
:100c0800f40fb200060472002d4390000683fb0027
:100c18000982620006027200bd429000c82add0007
:100c2800f40fb2008504720064064600e6bf2a008d
:100c3800860f5500e08f5d0004003a00f4ff27009e
:100c4800080462000900200026003700e00f550064
:100c5800e08f5d0006003a00090020003840880057
:100c68004940880008402000490020000e00370055
:100c7800e20f5500e08f5d000e003a000884fb008b
:100c880009002000c044dd00080020003440800036
:100c9800454080000402440085824c0034408800ae
:100ca800454088006044b800140020007440880063
:100cb8000c00370005102000850f5500e08f5d00ff
:100cc80008003a0074408000e00f52000300320030
:100cd80038408000494080000200370038408800d2
:100ce8004940880026102000860f5500e08f5d00df
:100cf80004003a005840880069408800f8ff2f0037
:100d0800f90f200004c02f00f5ff2f000a0242004f
:100d18008b824a00f67f2000860f5200e08f5a002f
:100d28000d003600f47f2a00840f5500e08f5d0027
:100d380009003e00f53f2000850f5500e08f5d005b
:100d48000500360088017800090178008a007800db
:100d58000b00780080010700400020001629b4002d
:100d6800c0ff2f001829b400e04f56001c003a00bd
:100d78000fbb97000c024300d448880064b02a00d7
:100d88000c025200e448880004c02f00f5ff2f0031
:100d98000a0242008b824a00f67f2000860f52002a
:100da800e08f5a000e003600f47f2a00840f5500a9
:100db800e08f5d000a003e00f53f2000850f5500da
:100dc800e08f5d0006003600100024004701070090
:100dd800500020001629b400a0ff2f001829b400e5
:100de80062054500e0854d00e48646008e0f5600fa
:100df8007bff39004f0778004f06be004f05be0045
:100e08004f04be004f00b100000006000400fa00c5
:100e1800889fbe008a9fbe008c9fbe000004780099
:100e28000205be008004eb0004c02f00f5ff2f0070
:100e3800820678009d00b3008d064400e7864600d0
:100e4800ecaf2a00250037008904e8001629ec00d9
:100e58001829ed000a0342008b834a00f07f200026
:100e6800800f5300e08f5b0018003600f67f2a00e1
:100e7800860f5500e08f5d0014003e00f03f200013
:100e8800800f5500e08f5d00100036000983460092
:100e9800d648880009035600e64888002204240042
:100ea8008a0078000b00780084bf9f0095bf9f00e0
:100eb8003501070090ff2f001629b400d0ff2f003e
:100ec8001829b4009fba97000fba9700064020006f
:100ed800070020000a0543008b854b00888f5400cb
:100ee800d9ff39004f06be004f05be004f04be00b3
:100ef8000080fa0000000600881f78001840800073
:100f08005340800062408000211020000000eb0068
:100f1800110107009800b30066045400d8488800ff
:100f2800c4b02a00e448880030002400ef0007001d
:100f3800500020001629b400a0ff2f001829b40083
:100f48004f04780000000600889fbe000981200039
:100f5800994478001881200018447800e04f540024
:100f680003003a0021e2a900304080000401070094
:100f780012c8bf0002e8b70013c8bf0003e8b700f3
:100f880014c8bf0004e8b7000568ef00b048800047
:100f98000208b700b04888001829d4000982fb006d
:100fa80005002000e80f5200e08f5a0034003e0090
:100fb80004600100080037001100370019003700ed
:100fc8001f0037002e0037002d0037002c00370097
:100fd8002b0037002400370024c0b3000002fd00b6
:100fe80012e8b7000002fd0014c0b3000002fd00c3
:100ff80013e8b7000002fd00440020001f0037007e
:101008000884fb001240800023408000080078001c
:10101800c6fe07004244dd0065044400084088001d
:10102800170037000880fb001629b50018a9ec0046
:101038001240800023408000dafe07000e003700cf
:101048000882fb00040078001629b400d0ff2f00a6
:101058001829b40012408000234080000400780062
:101068006aff0700040037001629ed008000200001
:101078001829b400a0ff07001400200004408800cd
:101088004f04be000000060020a2a8000b00370095
:101098000060fe008500ab00020032003040800096
:1010a800b70007002222ab00010032002222a9006b
:1010b8002202ab00010032003411800020a2ab00f4
:1010c800f3ff3a0000000600143a80000460a10013
:1010d800650420007605200027742000854b7800e1
:1010e800864b7800844b78002735800004fe2f005b
:1010f800048263000430a00024358800373680005d
:10110800f40f2e00048263000430b30034368800e4
:10111800143a80000460a00027742000854b7800f2
:10112800864b7800844b780000000600889fbe003c
:1011380024102000144088000428ef00211020000b
:1011480020408000880007000004be000410200032
:10115800144088000428ef0001102000204080007f
:10116800810007003040880041408800f4ff2f00cc
:10117800f50f2000840f5000858f580003003a00b7
:1011880004402000344088000828ef000e28ef00b3
:10119800e04f540009003a00053a800034ed2f0072
:1011a80004826200030032003040800074000700af
:1011b80002003700f80f20000900200011e1a90003
:1011c8001061a8008500a9009500a900e14f44001e
:1011d8000b0032000880fb000100200002402200c2
:1011e800430f2000d0fd07000004be0079088800e6
:1011f800600888000621ef000a21ef0011e1a8002d
:101208002ca3ef00b0ff07002c43a8002c83a800f4
:1012180021e2a8003403200044118800d43cb00027
:10122800141188005855250016a9ef00c8488800f1
:101238000dfe0700a00020001629b400a00220001f
:101248001829b40040ff070000408000c1fd0700d6
:10125800f5ff3700889fbe008a9fbe008c1f78006c
:101268000004be00db488000ea48800004402000fb
:10127800450020008401780005017800800078008e
:101288000900780034000700500020001629b40037
:10129800a0ff2f001829b400300024001300070015
:1012a8006022b8000886e80084017800050178000b
:1012b8008c0078000900780027000700db488800c8
:1012c800ea488800500020001629b400a0ff2f002b
:1012d8001829b40030002400040007004f067800e5
:1012e8004f05be004f04be0000000600003b88000a
:1012f800b0ff2f001629b400600020001829b400a0
:10130800b5488000d4488000848f52000e003a000f
:10131800c5488000e4488000848f52000a003a00e3
:1013280054052000343b8800a40a2000343b880080
:1013380061e7a8000000000000000000043b8000f6
:10134800e00f5200fdff35001a29ef00a4aa2a0079
:10135800e448880000000600900188008308bb006c
:101368008288bb0000000600010278009001880016
:101378009402ba00050078009480ba0000000600c4
:1013880000400100000006009401800090018800e0
:10139800023b88008108bb00700020001629b400b9
:1013a800300020001829b400b6488000d5488000d5
:1013b800850f53000e003a00c6488000e5488000bb
:1013c800850f53000a003a0055052000353b880078
:1013d800a50a2000353b880061e7a800000000004e
:1013e80000000000053b8000e08f5200fdff350043
:1013f8001a29ef00a5aa2a00e54888009401880068
:0414080000000600da
:020000040000fa
:10140c00160900000800000002000000ffff550054
:10141c0055000000aaaa00000008000016010000f8
:08142c000000000000000000b8
:020000040000fa
:020000040001f9
:0457f00033ff000083
:020000040000fa
:020000040001f9
:0457f400c0fc0000f5
:020000040000fa
:020000040001f9
:0457f8008d1b000005
:020000040000fa
:020000040001f9
:0457fc00603f00000a
:00000001FF
